:100000000C9472000C94D1000C94D1000C94D1008B
:100010000C94D1000C94D1000C94D1000C94D1001C
:100020000C94D1000C94D1000C94D1000C94D1000C
:100030000C94D1000C94D1000C94D1000C94D100FC
:100040000C94D1000C94D1000C94D1000C94D100EC
:100050000C94D1000C94D1000C94D1000C94D100DC
:100060000C94D1000C94D1000C94D1000C94D100CC
:100070000C94D1000C94D1000C94D1000C94D100BC
:100080000C94D1000C94D1000C94D1000C94D100AC
:100090000C94D1000C94D1000C94D1000C94D1009C
:1000A0000C94D1000C94D1000C94D1000C94D1008C
:1000B0000C94D1000C94D1000C94D1000C94D1007C
:1000C0000C94D1000C94D1000C94D1000C94D1006C
:1000D0000C94D1000C94D1000C94D1000C94D1005C
:1000E0000C94D10011241FBECFEFD1E2DEBFCDBFF3
:1000F00000E00CBFE4EEF0E040E019C0B791A7913A
:1001000037912791079107FD0EC097918791EF01D5
:10011000F92FE82F0BBF07900D92A217B307D9F75D
:10012000FE011BBE04C01D92A217B307E1F7E43E17
:10013000F40721F70E94B5000C949E00F894FFCFBD
:0601400062616E616E00B9
:1001460022E02093C000E1ECF0E0208128612083CA
:10015600E2ECF0E02081266020839093C500809336
:04016600C400089534
:10016A0087E690E00E94A30080E491E0A0E08093FB
:0C017A00C6000E94CA000E94C300FBCF18
:0E0186009091C00095FFFCCF8093C6000895B5
:0E0194008091C0008823E4F78091C600089592
:0401A2000C940000B9
:00000001FF
