:100000000C9472000C9417010C9417010C941701B6
:100010000C9417010C9417010C9417010C94170100
:100020000C9417010C9417010C9417010C941701F0
:100030000C9417010C9417010C9417010C941701E0
:100040000C9417010C9417010C9417010C941701D0
:100050000C9417010C9417010C9417010C941701C0
:100060000C9417010C9417010C9417010C941701B0
:100070000C9417010C9417010C9417010C941701A0
:100080000C9417010C9417010C9417010C94170190
:100090000C9417010C9417010C9417010C94170180
:1000A0000C9417010C9417010C9417010C94170170
:1000B0000C9417010C9417010C9417010C94170160
:1000C0000C9417010C9417010C9417010C94170150
:1000D0000C9417010C9417010C9417010C94170140
:1000E0000C94170111241FBECFEFD1E2DEBFCDBFAC
:1000F00000E00CBFE4EEF0E040E019C0B791A7913A
:1001000037912791079107FD0EC097918791EF01D5
:10011000F92FE82F0BBF07900D92A217B307D9F75D
:10012000FE011BBE04C01D92A217B307E1F7E43E17
:10013000F40721F70E94C7000C949E00F894FFCFAB
:10014000EF92FF921F93CF93DF93EC017B0110E0BE
:100150000DC08883883041F480E20E94090188E064
:100160000E940901219702C021961F5F0E94100181
:100170008D3029F0212F30E02E153F0554F31882E1
:0E018000812FDF91CF911F91FF90EF90089596
:10018E00CF93DF93CDB7DEB764970FB6F894DEBF8B
:10019E000FBECDBF87E690E00E94E900FE013196CA
:1001AE0084E1DF011D928A95E9F767E070E0CE01E8
:1001BE0001960E94A0008730C1F7CE0101960E94E1
:0401CE00FB00F3CF70
:1001D20022E02093C000E1ECF0E020812869208336
:1001E200E2ECF0E02081266020839093C5008093AA
:0401F200C4000895A8
:1001F600CF93DF93EC0104C090E00E94FB002196B0
:0C02060088818111F9CFDF91CF9108951C
:0E0212009091C00095FFFCCF8093C600089528
:0E0220008091C0008823E4F78091C600089505
:04022E000C9400002C
:00000001FF
