:100000000C9472000C94C9000C94C9000C94C900A3
:100010000C94C9000C94C9000C94C9000C94C9003C
:100020000C94C9000C94C9000C94C9000C94C9002C
:100030000C94C9000C94C9000C94C9000C94C9001C
:100040000C94C9000C94C9000C94C9000C94C9000C
:100050000C94C9000C94C9000C94C9000C94C900FC
:100060000C94C9000C94C9000C94C9000C94C900EC
:100070000C94C9000C94C9000C94C9000C94C900DC
:100080000C94C9000C94C9000C94C9000C94C900CC
:100090000C94C9000C94C9000C94C9000C94C900BC
:1000A0000C94C9000C94C9000C94C9000C94C900AC
:1000B0000C94C9000C94C9000C94C9000C94C9009C
:1000C0000C94C9000C94C9000C94C9000C94C9008C
:1000D0000C94C9000C94C9000C94C9000C94C9007C
:1000E0000C94C90011241FBECFEFD1E2DEBFCDBFFB
:1000F00000E00CBFE4EEF0E040E019C0B791A7913A
:1001000037912791079107FD0EC097918791EF01D5
:10011000F92FE82F0BBF07900D92A217B307D9F75D
:10012000FE011BBE04C01D92A217B307E1F7E43E17
:10013000F40721F70E94B2000C949E00F894FFCFC0
:1001400022E02093C000E1ECF0E0208128612083D0
:10015000E2ECF0E02081266020839093C50080933C
:04016000C40008953A
:1001640087E690E00E94A0000E94C2000E94BB00AB
:02017400FBCFBF
:0E0176009091C00095FFFCCF8093C6000895C5
:0E0184008091C0008823E4F78091C6000895A2
:040192000C940000C9
:00000001FF
